{
  "_format": "hh-sol-artifact-1",
  "contractName": "TokenFaucet",
  "sourceName": "contracts/TokenFaucet.sol",
  "abi": [
    {
      "inputs": [
        {
          "internalType": "address",
          "name": "tokenAddress",
          "type": "address"
        }
      ],
      "stateMutability": "nonpayable",
      "type": "constructor"
    },
    {
      "anonymous": false,
      "inputs": [
        {
          "indexed": false,
          "internalType": "bool",
          "name": "paused",
          "type": "bool"
        }
      ],
      "name": "FaucetPaused",
      "type": "event"
    },
    {
      "anonymous": false,
      "inputs": [
        {
          "indexed": true,
          "internalType": "address",
          "name": "user",
          "type": "address"
        },
        {
          "indexed": false,
          "internalType": "uint256",
          "name": "amount",
          "type": "uint256"
        },
        {
          "indexed": false,
          "internalType": "uint256",
          "name": "timestamp",
          "type": "uint256"
        }
      ],
      "name": "TokensClaimed",
      "type": "event"
    },
    {
      "inputs": [],
      "name": "COOLDOWN_TIME",
      "outputs": [
        {
          "internalType": "uint256",
          "name": "",
          "type": "uint256"
        }
      ],
      "stateMutability": "view",
      "type": "function"
    },
    {
      "inputs": [],
      "name": "FAUCET_AMOUNT",
      "outputs": [
        {
          "internalType": "uint256",
          "name": "",
          "type": "uint256"
        }
      ],
      "stateMutability": "view",
      "type": "function"
    },
    {
      "inputs": [],
      "name": "MAX_CLAIM_AMOUNT",
      "outputs": [
        {
          "internalType": "uint256",
          "name": "",
          "type": "uint256"
        }
      ],
      "stateMutability": "view",
      "type": "function"
    },
    {
      "inputs": [],
      "name": "admin",
      "outputs": [
        {
          "internalType": "address",
          "name": "",
          "type": "address"
        }
      ],
      "stateMutability": "view",
      "type": "function"
    },
    {
      "inputs": [
        {
          "internalType": "address",
          "name": "user",
          "type": "address"
        }
      ],
      "name": "canClaim",
      "outputs": [
        {
          "internalType": "bool",
          "name": "",
          "type": "bool"
        }
      ],
      "stateMutability": "view",
      "type": "function"
    },
    {
      "inputs": [],
      "name": "isPaused",
      "outputs": [
        {
          "internalType": "bool",
          "name": "",
          "type": "bool"
        }
      ],
      "stateMutability": "view",
      "type": "function"
    },
    {
      "inputs": [
        {
          "internalType": "address",
          "name": "",
          "type": "address"
        }
      ],
      "name": "lastClaimAt",
      "outputs": [
        {
          "internalType": "uint256",
          "name": "",
          "type": "uint256"
        }
      ],
      "stateMutability": "view",
      "type": "function"
    },
    {
      "inputs": [
        {
          "internalType": "address",
          "name": "user",
          "type": "address"
        }
      ],
      "name": "remainingAllowance",
      "outputs": [
        {
          "internalType": "uint256",
          "name": "",
          "type": "uint256"
        }
      ],
      "stateMutability": "view",
      "type": "function"
    },
    {
      "inputs": [],
      "name": "requestTokens",
      "outputs": [],
      "stateMutability": "nonpayable",
      "type": "function"
    },
    {
      "inputs": [
        {
          "internalType": "bool",
          "name": "_paused",
          "type": "bool"
        }
      ],
      "name": "setPaused",
      "outputs": [],
      "stateMutability": "nonpayable",
      "type": "function"
    },
    {
      "inputs": [
        {
          "internalType": "address",
          "name": "tokenAddress",
          "type": "address"
        }
      ],
      "name": "setToken",
      "outputs": [],
      "stateMutability": "nonpayable",
      "type": "function"
    },
    {
      "inputs": [],
      "name": "token",
      "outputs": [
        {
          "internalType": "contract YourToken",
          "name": "",
          "type": "address"
        }
      ],
      "stateMutability": "view",
      "type": "function"
    },
    {
      "inputs": [
        {
          "internalType": "address",
          "name": "",
          "type": "address"
        }
      ],
      "name": "totalClaimed",
      "outputs": [
        {
          "internalType": "uint256",
          "name": "",
          "type": "uint256"
        }
      ],
      "stateMutability": "view",
      "type": "function"
    }
  ],
  "bytecode": "0x60a06040523480156200001157600080fd5b50604051620013613803806200136183398181016040528101906200003791906200016c565b3373ffffffffffffffffffffffffffffffffffffffff1660808173ffffffffffffffffffffffffffffffffffffffff168152505060008060146101000a81548160ff021916908315150217905550600073ffffffffffffffffffffffffffffffffffffffff168173ffffffffffffffffffffffffffffffffffffffff1614620000fb57806000806101000a81548173ffffffffffffffffffffffffffffffffffffffff021916908373ffffffffffffffffffffffffffffffffffffffff1602179055505b506200019e565b600080fd5b600073ffffffffffffffffffffffffffffffffffffffff82169050919050565b6000620001348262000107565b9050919050565b620001468162000127565b81146200015257600080fd5b50565b60008151905062000166816200013b565b92915050565b60006020828403121562000185576200018462000102565b5b6000620001958482850162000155565b91505092915050565b608051611199620001c8600039600081816102a4015281816104730152610b3801526111996000f3fe608060405234801561001057600080fd5b50600436106100cf5760003560e01c8063b187bd261161008c578063ef5d9ae811610066578063ef5d9ae8146101ee578063f357df6d1461021e578063f851a4401461024e578063fc0c546a1461026c576100cf565b8063b187bd2614610182578063bf3506c1146101a0578063e362b4f7146101d0576100cf565b806303822d3b146100d4578063144fa6d71461010457806316c38b3c14610120578063359cf2b71461013c57806376697640146101465780637d26324514610164575b600080fd5b6100ee60048036038101906100e99190610be1565b61028a565b6040516100fb9190610c27565b60405180910390f35b61011e60048036038101906101199190610be1565b6102a2565b005b61013a60048036038101906101359190610c7a565b610471565b005b610144610553565b005b61014e6108f5565b60405161015b9190610c27565b60405180910390f35b61016c610902565b6040516101799190610c27565b60405180910390f35b61018a610909565b6040516101979190610cb6565b60405180910390f35b6101ba60048036038101906101b59190610be1565b61091f565b6040516101c79190610cb6565b60405180910390f35b6101d8610a5b565b6040516101e59190610c27565b60405180910390f35b61020860048036038101906102039190610be1565b610a68565b6040516102159190610c27565b60405180910390f35b61023860048036038101906102339190610be1565b610a80565b6040516102459190610c27565b60405180910390f35b610256610b36565b6040516102639190610ce0565b60405180910390f35b610274610b5a565b6040516102819190610d5a565b60405180910390f35b60016020528060005260406000206000915090505481565b7f000000000000000000000000000000000000000000000000000000000000000073ffffffffffffffffffffffffffffffffffffffff163373ffffffffffffffffffffffffffffffffffffffff1614610330576040517f08c379a000000000000000000000000000000000000000000000000000000000815260040161032790610dd2565b60405180910390fd5b600073ffffffffffffffffffffffffffffffffffffffff1660008054906101000a900473ffffffffffffffffffffffffffffffffffffffff1673ffffffffffffffffffffffffffffffffffffffff16146103bf576040517f08c379a00000000000000000000000000000000000000000000000000000000081526004016103b690610e3e565b60405180910390fd5b600073ffffffffffffffffffffffffffffffffffffffff168173ffffffffffffffffffffffffffffffffffffffff160361042e576040517f08c379a000000000000000000000000000000000000000000000000000000000815260040161042590610eaa565b60405180910390fd5b806000806101000a81548173ffffffffffffffffffffffffffffffffffffffff021916908373ffffffffffffffffffffffffffffffffffffffff16021790555050565b7f000000000000000000000000000000000000000000000000000000000000000073ffffffffffffffffffffffffffffffffffffffff163373ffffffffffffffffffffffffffffffffffffffff16146104ff576040517f08c379a00000000000000000000000000000000000000000000000000000000081526004016104f690610dd2565b60405180910390fd5b80600060146101000a81548160ff0219169083151502179055507f50cfd8deb0b293676ae69355a9eed053a00f81d3bd6a0ae4dc082629e6476f7f816040516105489190610cb6565b60405180910390a150565b600060149054906101000a900460ff16156105a3576040517f08c379a000000000000000000000000000000000000000000000000000000000815260040161059a90610f16565b60405180910390fd5b600073ffffffffffffffffffffffffffffffffffffffff1660008054906101000a900473ffffffffffffffffffffffffffffffffffffffff1673ffffffffffffffffffffffffffffffffffffffff1603610632576040517f08c379a000000000000000000000000000000000000000000000000000000000815260040161062990610f82565b60405180910390fd5b62015180600160003373ffffffffffffffffffffffffffffffffffffffff1673ffffffffffffffffffffffffffffffffffffffff168152602001908152602001600020546106809190610fd1565b4210156106c2576040517f08c379a00000000000000000000000000000000000000000000000000000000081526004016106b990611051565b60405180910390fd5b683635c9adc5dea0000068056bc75e2d63100000600260003373ffffffffffffffffffffffffffffffffffffffff1673ffffffffffffffffffffffffffffffffffffffff168152602001908152602001600020546107209190610fd1565b1115610761576040517f08c379a0000000000000000000000000000000000000000000000000000000008152600401610758906110bd565b60405180910390fd5b42600160003373ffffffffffffffffffffffffffffffffffffffff1673ffffffffffffffffffffffffffffffffffffffff1681526020019081526020016000208190555068056bc75e2d63100000600260003373ffffffffffffffffffffffffffffffffffffffff1673ffffffffffffffffffffffffffffffffffffffff16815260200190815260200160002060008282546107fd9190610fd1565b9250508190555060008054906101000a900473ffffffffffffffffffffffffffffffffffffffff1673ffffffffffffffffffffffffffffffffffffffff166340c10f193368056bc75e2d631000006040518363ffffffff1660e01b81526004016108689291906110dd565b600060405180830381600087803b15801561088257600080fd5b505af1158015610896573d6000803e3d6000fd5b505050503373ffffffffffffffffffffffffffffffffffffffff167f9923b4306c6c030f2bdfbf156517d5983b87e15b96176da122cd4f2effa4ba7b68056bc75e2d63100000426040516108eb929190611106565b60405180910390a2565b68056bc75e2d6310000081565b6201518081565b60008060149054906101000a900460ff16905090565b60008060149054906101000a900460ff161561093e5760009050610a56565b600073ffffffffffffffffffffffffffffffffffffffff1660008054906101000a900473ffffffffffffffffffffffffffffffffffffffff1673ffffffffffffffffffffffffffffffffffffffff160361099b5760009050610a56565b62015180600160008473ffffffffffffffffffffffffffffffffffffffff1673ffffffffffffffffffffffffffffffffffffffff168152602001908152602001600020546109e99190610fd1565b4210156109f95760009050610a56565b683635c9adc5dea00000600260008473ffffffffffffffffffffffffffffffffffffffff1673ffffffffffffffffffffffffffffffffffffffff1681526020019081526020016000205410610a515760009050610a56565b600190505b919050565b683635c9adc5dea0000081565b60026020528060005260406000206000915090505481565b6000683635c9adc5dea00000600260008473ffffffffffffffffffffffffffffffffffffffff1673ffffffffffffffffffffffffffffffffffffffff1681526020019081526020016000205410610ada5760009050610b31565b600260008373ffffffffffffffffffffffffffffffffffffffff1673ffffffffffffffffffffffffffffffffffffffff16815260200190815260200160002054683635c9adc5dea00000610b2e919061112f565b90505b919050565b7f000000000000000000000000000000000000000000000000000000000000000081565b60008054906101000a900473ffffffffffffffffffffffffffffffffffffffff1681565b600080fd5b600073ffffffffffffffffffffffffffffffffffffffff82169050919050565b6000610bae82610b83565b9050919050565b610bbe81610ba3565b8114610bc957600080fd5b50565b600081359050610bdb81610bb5565b92915050565b600060208284031215610bf757610bf6610b7e565b5b6000610c0584828501610bcc565b91505092915050565b6000819050919050565b610c2181610c0e565b82525050565b6000602082019050610c3c6000830184610c18565b92915050565b60008115159050919050565b610c5781610c42565b8114610c6257600080fd5b50565b600081359050610c7481610c4e565b92915050565b600060208284031215610c9057610c8f610b7e565b5b6000610c9e84828501610c65565b91505092915050565b610cb081610c42565b82525050565b6000602082019050610ccb6000830184610ca7565b92915050565b610cda81610ba3565b82525050565b6000602082019050610cf56000830184610cd1565b92915050565b6000819050919050565b6000610d20610d1b610d1684610b83565b610cfb565b610b83565b9050919050565b6000610d3282610d05565b9050919050565b6000610d4482610d27565b9050919050565b610d5481610d39565b82525050565b6000602082019050610d6f6000830184610d4b565b92915050565b600082825260208201905092915050565b7f43616c6c6572206973206e6f742061646d696e00000000000000000000000000600082015250565b6000610dbc601383610d75565b9150610dc782610d86565b602082019050919050565b60006020820190508181036000830152610deb81610daf565b9050919050565b7f546f6b656e20616c726561647920736574000000000000000000000000000000600082015250565b6000610e28601183610d75565b9150610e3382610df2565b602082019050919050565b60006020820190508181036000830152610e5781610e1b565b9050919050565b7f496e76616c696420746f6b656e20616464726573730000000000000000000000600082015250565b6000610e94601583610d75565b9150610e9f82610e5e565b602082019050919050565b60006020820190508181036000830152610ec381610e87565b9050919050565b7f4661756365742069732070617573656400000000000000000000000000000000600082015250565b6000610f00601083610d75565b9150610f0b82610eca565b602082019050919050565b60006020820190508181036000830152610f2f81610ef3565b9050919050565b7f546f6b656e206e6f742073657400000000000000000000000000000000000000600082015250565b6000610f6c600d83610d75565b9150610f7782610f36565b602082019050919050565b60006020820190508181036000830152610f9b81610f5f565b9050919050565b7f4e487b7100000000000000000000000000000000000000000000000000000000600052601160045260246000fd5b6000610fdc82610c0e565b9150610fe783610c0e565b9250828201905080821115610fff57610ffe610fa2565b5b92915050565b7f436f6f6c646f776e20706572696f64206e6f7420656c61707365640000000000600082015250565b600061103b601b83610d75565b915061104682611005565b602082019050919050565b6000602082019050818103600083015261106a8161102e565b9050919050565b7f4c69666574696d6520636c61696d206c696d6974207265616368656400000000600082015250565b60006110a7601c83610d75565b91506110b282611071565b602082019050919050565b600060208201905081810360008301526110d68161109a565b9050919050565b60006040820190506110f26000830185610cd1565b6110ff6020830184610c18565b9392505050565b600060408201905061111b6000830185610c18565b6111286020830184610c18565b9392505050565b600061113a82610c0e565b915061114583610c0e565b925082820390508181111561115d5761115c610fa2565b5b9291505056fea26469706673582212204070ca6086c8611b86da3373ac9e0d202999838108a49ebf3455114ddbd2cf9964736f6c63430008140033",
  "linkReferences": {},
  "deployedLinkReferences": {}
}